{
  "_format": "hh-sol-artifact-1",
  "contractName": "SolimaxLaunchPad",
  "sourceName": "contracts/SeedifyFund/SolimaxFundERC20.sol",
  "abi": [
    {
      "inputs": [
        {
          "internalType": "string",
          "name": "_name",
          "type": "string"
        },
        {
          "internalType": "uint256",
          "name": "_maxCap",
          "type": "uint256"
        },
        {
          "internalType": "uint256",
          "name": "_saleStart",
          "type": "uint256"
        },
        {
          "internalType": "uint256",
          "name": "_saleEnd",
          "type": "uint256"
        },
        {
          "internalType": "uint256",
          "name": "_noOfTiers",
          "type": "uint256"
        },
        {
          "internalType": "address",
          "name": "_projectOwner",
          "type": "address"
        },
        {
          "internalType": "address",
          "name": "_tokenAddress",
          "type": "address"
        },
        {
          "internalType": "uint256",
          "name": "_totalUsers",
          "type": "uint256"
        },
        {
          "internalType": "uint8",
          "name": "_phaseNo",
          "type": "uint8"
        }
      ],
      "stateMutability": "nonpayable",
      "type": "constructor"
    },
    {
      "anonymous": false,
      "inputs": [
        {
          "indexed": true,
          "internalType": "address",
          "name": "previousOwner",
          "type": "address"
        },
        {
          "indexed": true,
          "internalType": "address",
          "name": "newOwner",
          "type": "address"
        }
      ],
      "name": "OwnershipTransferred",
      "type": "event"
    },
    {
      "anonymous": false,
      "inputs": [
        {
          "indexed": false,
          "internalType": "address",
          "name": "account",
          "type": "address"
        }
      ],
      "name": "Paused",
      "type": "event"
    },
    {
      "anonymous": false,
      "inputs": [
        {
          "indexed": false,
          "internalType": "address",
          "name": "account",
          "type": "address"
        }
      ],
      "name": "Unpaused",
      "type": "event"
    },
    {
      "anonymous": false,
      "inputs": [
        {
          "indexed": true,
          "internalType": "address",
          "name": "user",
          "type": "address"
        },
        {
          "indexed": false,
          "internalType": "uint256",
          "name": "amount",
          "type": "uint256"
        },
        {
          "indexed": true,
          "internalType": "uint8",
          "name": "phase",
          "type": "uint8"
        }
      ],
      "name": "UserInvestment",
      "type": "event"
    },
    {
      "inputs": [],
      "name": "ERC20Interface",
      "outputs": [
        {
          "internalType": "contract IERC20",
          "name": "",
          "type": "address"
        }
      ],
      "stateMutability": "view",
      "type": "function"
    },
    {
      "inputs": [
        {
          "internalType": "uint256",
          "name": "amount",
          "type": "uint256"
        }
      ],
      "name": "buyTokens",
      "outputs": [
        {
          "internalType": "bool",
          "name": "",
          "type": "bool"
        }
      ],
      "stateMutability": "nonpayable",
      "type": "function"
    },
    {
      "inputs": [],
      "name": "maxCap",
      "outputs": [
        {
          "internalType": "uint256",
          "name": "",
          "type": "uint256"
        }
      ],
      "stateMutability": "view",
      "type": "function"
    },
    {
      "inputs": [],
      "name": "name",
      "outputs": [
        {
          "internalType": "string",
          "name": "",
          "type": "string"
        }
      ],
      "stateMutability": "view",
      "type": "function"
    },
    {
      "inputs": [],
      "name": "noOfTiers",
      "outputs": [
        {
          "internalType": "uint256",
          "name": "",
          "type": "uint256"
        }
      ],
      "stateMutability": "view",
      "type": "function"
    },
    {
      "inputs": [],
      "name": "owner",
      "outputs": [
        {
          "internalType": "address",
          "name": "",
          "type": "address"
        }
      ],
      "stateMutability": "view",
      "type": "function"
    },
    {
      "inputs": [],
      "name": "pause",
      "outputs": [],
      "stateMutability": "nonpayable",
      "type": "function"
    },
    {
      "inputs": [],
      "name": "paused",
      "outputs": [
        {
          "internalType": "bool",
          "name": "",
          "type": "bool"
        }
      ],
      "stateMutability": "view",
      "type": "function"
    },
    {
      "inputs": [],
      "name": "phaseNo",
      "outputs": [
        {
          "internalType": "uint8",
          "name": "",
          "type": "uint8"
        }
      ],
      "stateMutability": "view",
      "type": "function"
    },
    {
      "inputs": [],
      "name": "projectOwner",
      "outputs": [
        {
          "internalType": "address",
          "name": "",
          "type": "address"
        }
      ],
      "stateMutability": "view",
      "type": "function"
    },
    {
      "inputs": [],
      "name": "renounceOwnership",
      "outputs": [],
      "stateMutability": "nonpayable",
      "type": "function"
    },
    {
      "inputs": [],
      "name": "saleEnd",
      "outputs": [
        {
          "internalType": "uint256",
          "name": "",
          "type": "uint256"
        }
      ],
      "stateMutability": "view",
      "type": "function"
    },
    {
      "inputs": [],
      "name": "saleStart",
      "outputs": [
        {
          "internalType": "uint256",
          "name": "",
          "type": "uint256"
        }
      ],
      "stateMutability": "view",
      "type": "function"
    },
    {
      "inputs": [
        {
          "internalType": "uint256",
          "name": "",
          "type": "uint256"
        }
      ],
      "name": "tierDetails",
      "outputs": [
        {
          "internalType": "uint256",
          "name": "maxTierCap",
          "type": "uint256"
        },
        {
          "internalType": "uint256",
          "name": "minUserCap",
          "type": "uint256"
        },
        {
          "internalType": "uint256",
          "name": "maxUserCap",
          "type": "uint256"
        },
        {
          "internalType": "uint256",
          "name": "amountRaised",
          "type": "uint256"
        },
        {
          "internalType": "uint256",
          "name": "users",
          "type": "uint256"
        }
      ],
      "stateMutability": "view",
      "type": "function"
    },
    {
      "inputs": [],
      "name": "tokenAddress",
      "outputs": [
        {
          "internalType": "address",
          "name": "",
          "type": "address"
        }
      ],
      "stateMutability": "view",
      "type": "function"
    },
    {
      "inputs": [],
      "name": "totalBUSDReceivedInAllTier",
      "outputs": [
        {
          "internalType": "uint256",
          "name": "",
          "type": "uint256"
        }
      ],
      "stateMutability": "view",
      "type": "function"
    },
    {
      "inputs": [],
      "name": "totalUsers",
      "outputs": [
        {
          "internalType": "uint256",
          "name": "",
          "type": "uint256"
        }
      ],
      "stateMutability": "view",
      "type": "function"
    },
    {
      "inputs": [
        {
          "internalType": "address",
          "name": "newOwner",
          "type": "address"
        }
      ],
      "name": "transferOwnership",
      "outputs": [],
      "stateMutability": "nonpayable",
      "type": "function"
    },
    {
      "inputs": [],
      "name": "unpause",
      "outputs": [],
      "stateMutability": "nonpayable",
      "type": "function"
    },
    {
      "inputs": [
        {
          "internalType": "uint256",
          "name": "newSaleEnd",
          "type": "uint256"
        }
      ],
      "name": "updateEndTime",
      "outputs": [],
      "stateMutability": "nonpayable",
      "type": "function"
    },
    {
      "inputs": [
        {
          "internalType": "uint256",
          "name": "_maxCap",
          "type": "uint256"
        }
      ],
      "name": "updateMaxCap",
      "outputs": [],
      "stateMutability": "nonpayable",
      "type": "function"
    },
    {
      "inputs": [
        {
          "internalType": "uint256",
          "name": "newsaleStart",
          "type": "uint256"
        }
      ],
      "name": "updateStartTime",
      "outputs": [],
      "stateMutability": "nonpayable",
      "type": "function"
    },
    {
      "inputs": [
        {
          "internalType": "uint256[]",
          "name": "_tier",
          "type": "uint256[]"
        },
        {
          "internalType": "uint256[]",
          "name": "_maxTierCap",
          "type": "uint256[]"
        },
        {
          "internalType": "uint256[]",
          "name": "_minUserCap",
          "type": "uint256[]"
        },
        {
          "internalType": "uint256[]",
          "name": "_maxUserCap",
          "type": "uint256[]"
        },
        {
          "internalType": "uint256[]",
          "name": "_tierUsers",
          "type": "uint256[]"
        }
      ],
      "name": "updateTiers",
      "outputs": [],
      "stateMutability": "nonpayable",
      "type": "function"
    },
    {
      "inputs": [
        {
          "internalType": "address[]",
          "name": "_users",
          "type": "address[]"
        },
        {
          "internalType": "uint256[]",
          "name": "_tiers",
          "type": "uint256[]"
        }
      ],
      "name": "updateUsers",
      "outputs": [],
      "stateMutability": "nonpayable",
      "type": "function"
    },
    {
      "inputs": [
        {
          "internalType": "address",
          "name": "",
          "type": "address"
        }
      ],
      "name": "userDetails",
      "outputs": [
        {
          "internalType": "uint256",
          "name": "tier",
          "type": "uint256"
        },
        {
          "internalType": "uint256",
          "name": "investedAmount",
          "type": "uint256"
        }
      ],
      "stateMutability": "view",
      "type": "function"
    }
  ],
  "bytecode": "0x60a06040523480156200001157600080fd5b506040516200393a3803806200393a8339818101604052810190620000379190620007af565b620000576200004b620003b860201b60201c565b620003c060201b60201c565b60008060146101000a81548160ff02191690831515021790555088600190805190602001906200008992919062000484565b5060008811620000d0576040517f08c379a0000000000000000000000000000000000000000000000000000000008152600401620000c7906200090e565b60405180910390fd5b876002819055504287118015620000e657508686115b62000128576040517f08c379a00000000000000000000000000000000000000000000000000000000081526004016200011f9062000980565b60405180910390fd5b8660038190555085600481905550600085116200017c576040517f08c379a00000000000000000000000000000000000000000000000000000000081526004016200017390620009f2565b60405180910390fd5b84600681905550600073ffffffffffffffffffffffffffffffffffffffff168473ffffffffffffffffffffffffffffffffffffffff161415620001f6576040517f08c379a0000000000000000000000000000000000000000000000000000000008152600401620001ed9062000a64565b60405180910390fd5b83600860006101000a81548173ffffffffffffffffffffffffffffffffffffffff021916908373ffffffffffffffffffffffffffffffffffffffff160217905550600073ffffffffffffffffffffffffffffffffffffffff168373ffffffffffffffffffffffffffffffffffffffff161415620002aa576040517f08c379a0000000000000000000000000000000000000000000000000000000008152600401620002a19062000ad6565b60405180910390fd5b82600960006101000a81548173ffffffffffffffffffffffffffffffffffffffff021916908373ffffffffffffffffffffffffffffffffffffffff160217905550600960009054906101000a900473ffffffffffffffffffffffffffffffffffffffff16600a60006101000a81548173ffffffffffffffffffffffffffffffffffffffff021916908373ffffffffffffffffffffffffffffffffffffffff1602179055506000821162000394576040517f08c379a00000000000000000000000000000000000000000000000000000000081526004016200038b9062000b48565b60405180910390fd5b816007819055508060ff1660808160ff168152505050505050505050505062000bcf565b600033905090565b60008060009054906101000a900473ffffffffffffffffffffffffffffffffffffffff169050816000806101000a81548173ffffffffffffffffffffffffffffffffffffffff021916908373ffffffffffffffffffffffffffffffffffffffff1602179055508173ffffffffffffffffffffffffffffffffffffffff168173ffffffffffffffffffffffffffffffffffffffff167f8be0079c531659141344cd1fd0a4f28419497f9722a3daafe3b4186f6b6457e060405160405180910390a35050565b828054620004929062000b99565b90600052602060002090601f016020900481019282620004b6576000855562000502565b82601f10620004d157805160ff191683800117855562000502565b8280016001018555821562000502579182015b8281111562000501578251825591602001919060010190620004e4565b5b50905062000511919062000515565b5090565b5b808211156200053057600081600090555060010162000516565b5090565b6000604051905090565b600080fd5b600080fd5b600080fd5b600080fd5b6000601f19601f8301169050919050565b7f4e487b7100000000000000000000000000000000000000000000000000000000600052604160045260246000fd5b6200059d8262000552565b810181811067ffffffffffffffff82111715620005bf57620005be62000563565b5b80604052505050565b6000620005d462000534565b9050620005e2828262000592565b919050565b600067ffffffffffffffff82111562000605576200060462000563565b5b620006108262000552565b9050602081019050919050565b60005b838110156200063d57808201518184015260208101905062000620565b838111156200064d576000848401525b50505050565b60006200066a6200066484620005e7565b620005c8565b9050828152602081018484840111156200068957620006886200054d565b5b620006968482856200061d565b509392505050565b600082601f830112620006b657620006b562000548565b5b8151620006c884826020860162000653565b91505092915050565b6000819050919050565b620006e681620006d1565b8114620006f257600080fd5b50565b6000815190506200070681620006db565b92915050565b600073ffffffffffffffffffffffffffffffffffffffff82169050919050565b600062000739826200070c565b9050919050565b6200074b816200072c565b81146200075757600080fd5b50565b6000815190506200076b8162000740565b92915050565b600060ff82169050919050565b620007898162000771565b81146200079557600080fd5b50565b600081519050620007a9816200077e565b92915050565b60008060008060008060008060006101208a8c031215620007d557620007d46200053e565b5b60008a015167ffffffffffffffff811115620007f657620007f562000543565b5b620008048c828d016200069e565b9950506020620008178c828d01620006f5565b98505060406200082a8c828d01620006f5565b97505060606200083d8c828d01620006f5565b9650506080620008508c828d01620006f5565b95505060a0620008638c828d016200075a565b94505060c0620008768c828d016200075a565b93505060e0620008898c828d01620006f5565b9250506101006200089d8c828d0162000798565b9150509295985092959850929598565b600082825260208201905092915050565b7f5a65726f206d6178206361700000000000000000000000000000000000000000600082015250565b6000620008f6600c83620008ad565b91506200090382620008be565b602082019050919050565b600060208201905081810360008301526200092981620008e7565b9050919050565b7f496e76616c69642074696d696e67730000000000000000000000000000000000600082015250565b600062000968600f83620008ad565b9150620009758262000930565b602082019050919050565b600060208201905081810360008301526200099b8162000959565b9050919050565b7f5a65726f20746965727300000000000000000000000000000000000000000000600082015250565b6000620009da600a83620008ad565b9150620009e782620009a2565b602082019050919050565b6000602082019050818103600083015262000a0d81620009cb565b9050919050565b7f5a65726f2070726f6a656374206f776e65722061646472657373000000000000600082015250565b600062000a4c601a83620008ad565b915062000a598262000a14565b602082019050919050565b6000602082019050818103600083015262000a7f8162000a3d565b9050919050565b7f5a65726f20746f6b656e20616464726573730000000000000000000000000000600082015250565b600062000abe601283620008ad565b915062000acb8262000a86565b602082019050919050565b6000602082019050818103600083015262000af18162000aaf565b9050919050565b7f5a65726f20757365727300000000000000000000000000000000000000000000600082015250565b600062000b30600a83620008ad565b915062000b3d8262000af8565b602082019050919050565b6000602082019050818103600083015262000b638162000b21565b9050919050565b7f4e487b7100000000000000000000000000000000000000000000000000000000600052602260045260246000fd5b6000600282049050600182168062000bb257607f821691505b6020821081141562000bc95762000bc862000b6a565b5b50919050565b608051612d4862000bf260003960008181610cf801526112a90152612d486000f3fe608060405234801561001057600080fd5b50600436106101735760003560e01c8063715018a6116100de578063ab0bcc4111610097578063dd30105711610071578063dd301057146103cf578063e81ba080146103ed578063f2fde38b14610409578063f75c1b981461042557610173565b8063ab0bcc4114610375578063bff1f9e114610393578063c10b9358146103b157610173565b8063715018a6146102e95780638456cb59146102f35780638cb37ab2146102fd5780638da5cb5b1461031b5780639d76ea5814610339578063a4475ce41461035757610173565b80633f4ba83a116101305780633f4ba83a1461023a57806348dec2a7146102445780635c975abb1461027557806362dd5f38146102935780636ab3846b146102af57806371283088146102cb57610173565b806306bcf02f1461017857806306fdde03146101945780631bbc4b83146101b25780631c713fa9146101d057806323548b8b146101ec5780633610724e1461020a575b600080fd5b610192600480360381019061018d91906119b9565b610459565b005b61019c610523565b6040516101a99190611a7f565b60405180910390f35b6101ba6105b1565b6040516101c79190611b20565b60405180910390f35b6101ea60048036038101906101e59190611d84565b6105d7565b005b6101f46107bb565b6040516102019190611e0b565b60405180910390f35b610224600480360381019061021f91906119b9565b6107c1565b6040516102319190611e41565b60405180910390f35b610242610d76565b005b61025e60048036038101906102599190611e5c565b610dfc565b60405161026c929190611e89565b60405180910390f35b61027d610e20565b60405161028a9190611e41565b60405180910390f35b6102ad60048036038101906102a89190611eb2565b610e36565b005b6102c960048036038101906102c491906119b9565b6111d2565b005b6102d36112a7565b6040516102e09190611fd5565b60405180910390f35b6102f16112cb565b005b6102fb611353565b005b6103056113d9565b6040516103129190611e0b565b60405180910390f35b6103236113df565b6040516103309190611fff565b60405180910390f35b610341611408565b60405161034e9190611fff565b60405180910390f35b61035f61142e565b60405161036c9190611fff565b60405180910390f35b61037d611454565b60405161038a9190611e0b565b60405180910390f35b61039b61145a565b6040516103a89190611e0b565b60405180910390f35b6103b9611460565b6040516103c69190611e0b565b60405180910390f35b6103d7611466565b6040516103e49190611e0b565b60405180910390f35b610407600480360381019061040291906119b9565b61146c565b005b610423600480360381019061041e9190611e5c565b611535565b005b61043f600480360381019061043a91906119b9565b61162d565b60405161045095949392919061201a565b60405180910390f35b610461611663565b73ffffffffffffffffffffffffffffffffffffffff1661047f6113df565b73ffffffffffffffffffffffffffffffffffffffff16146104d5576040517f08c379a00000000000000000000000000000000000000000000000000000000081526004016104cc906120b9565b60405180910390fd5b6003544210610519576040517f08c379a000000000000000000000000000000000000000000000000000000000815260040161051090612125565b60405180910390fd5b8060038190555050565b6001805461053090612174565b80601f016020809104026020016040519081016040528092919081815260200182805461055c90612174565b80156105a95780601f1061057e576101008083540402835291602001916105a9565b820191906000526020600020905b81548152906001019060200180831161058c57829003601f168201915b505050505081565b600a60009054906101000a900473ffffffffffffffffffffffffffffffffffffffff1681565b6105df611663565b73ffffffffffffffffffffffffffffffffffffffff166105fd6113df565b73ffffffffffffffffffffffffffffffffffffffff1614610653576040517f08c379a000000000000000000000000000000000000000000000000000000000815260040161064a906120b9565b60405180910390fd5b8051825114610697576040517f08c379a000000000000000000000000000000000000000000000000000000000815260040161068e906121f2565b60405180910390fd5b60005b82518110156107b65760008282815181106106b8576106b7612212565b5b60200260200101511180156106e957506006548282815181106106de576106dd612212565b5b602002602001015111155b610728576040517f08c379a000000000000000000000000000000000000000000000000000000000815260040161071f9061228d565b60405180910390fd5b81818151811061073b5761073a612212565b5b6020026020010151600c600085848151811061075a57610759612212565b5b602002602001015173ffffffffffffffffffffffffffffffffffffffff1673ffffffffffffffffffffffffffffffffffffffff1681526020019081526020016000206000018190555080806107ae906122dc565b91505061069a565b505050565b60025481565b60006107cb610e20565b1561080b576040517f08c379a000000000000000000000000000000000000000000000000000000000815260040161080290612371565b60405180910390fd5b33826000600a60009054906101000a900473ffffffffffffffffffffffffffffffffffffffff1673ffffffffffffffffffffffffffffffffffffffff1663dd62ed3e84306040518363ffffffff1660e01b815260040161086c929190612391565b60206040518083038186803b15801561088457600080fd5b505afa158015610898573d6000803e3d6000fd5b505050506040513d601f19601f820116820180604052508101906108bc91906123cf565b905080821115610901576040517f08c379a00000000000000000000000000000000000000000000000000000000081526004016108f89061246e565b60405180910390fd5b600354421015610946576040517f08c379a000000000000000000000000000000000000000000000000000000000815260040161093d906124da565b60405180910390fd5b60045442111561098b576040517f08c379a000000000000000000000000000000000000000000000000000000000815260040161098290612546565b60405180910390fd5b6002546109a38660055461166b90919063ffffffff16565b11156109e4576040517f08c379a00000000000000000000000000000000000000000000000000000000081526004016109db906125b2565b60405180910390fd5b6000600c60003373ffffffffffffffffffffffffffffffffffffffff1673ffffffffffffffffffffffffffffffffffffffff168152602001908152602001600020600001549050600081118015610a3d57506006548111155b610a7c576040517f08c379a0000000000000000000000000000000000000000000000000000000008152600401610a739061261e565b60405180910390fd5b6000610ad3600c60003373ffffffffffffffffffffffffffffffffffffffff1673ffffffffffffffffffffffffffffffffffffffff168152602001908152602001600020600101548861166b90919063ffffffff16565b9050600b600083815260200190815260200160002060010154811015610b2e576040517f08c379a0000000000000000000000000000000000000000000000000000000008152600401610b259061268a565b60405180910390fd5b600b600083815260200190815260200160002060020154811115610b87576040517f08c379a0000000000000000000000000000000000000000000000000000000008152600401610b7e906126f6565b60405180910390fd5b600b600083815260200190815260200160002060000154811115610be0576040517f08c379a0000000000000000000000000000000000000000000000000000000008152600401610bd790612788565b60405180910390fd5b610bf58760055461166b90919063ffffffff16565b600581905550610c2487600b60008581526020019081526020016000206003015461166b90919063ffffffff16565b600b60008481526020019081526020016000206003018190555080600c60003373ffffffffffffffffffffffffffffffffffffffff1673ffffffffffffffffffffffffffffffffffffffff16815260200190815260200160002060010181905550610cf633600860009054906101000a900473ffffffffffffffffffffffffffffffffffffffff1689600a60009054906101000a900473ffffffffffffffffffffffffffffffffffffffff1673ffffffffffffffffffffffffffffffffffffffff166116c9909392919063ffffffff16565b7f000000000000000000000000000000000000000000000000000000000000000060ff163373ffffffffffffffffffffffffffffffffffffffff167fa6c963db73174350c08b882c2b6c89902dccdfdb463a6f6fe06659a0320b7a3383604051610d609190611e0b565b60405180910390a3600195505050505050919050565b610d7e611663565b73ffffffffffffffffffffffffffffffffffffffff16610d9c6113df565b73ffffffffffffffffffffffffffffffffffffffff1614610df2576040517f08c379a0000000000000000000000000000000000000000000000000000000008152600401610de9906120b9565b60405180910390fd5b610dfa611767565b565b600c6020528060005260406000206000915090508060000154908060010154905082565b60008060149054906101000a900460ff16905090565b610e3e611663565b73ffffffffffffffffffffffffffffffffffffffff16610e5c6113df565b73ffffffffffffffffffffffffffffffffffffffff1614610eb2576040517f08c379a0000000000000000000000000000000000000000000000000000000008152600401610ea9906120b9565b60405180910390fd5b83518551148015610ec4575082518451145b8015610ed1575081518351145b8015610ede575080518251145b610f1d576040517f08c379a0000000000000000000000000000000000000000000000000000000008152600401610f14906127f4565b60405180910390fd5b60005b85518110156111ca576000868281518110610f3e57610f3d612212565b5b6020026020010151118015610f6f5750600654868281518110610f6457610f63612212565b5b602002602001015111155b610fae576040517f08c379a0000000000000000000000000000000000000000000000000000000008152600401610fa590612860565b60405180910390fd5b6000858281518110610fc357610fc2612212565b5b60200260200101511161100b576040517f08c379a0000000000000000000000000000000000000000000000000000000008152600401611002906128cc565b60405180910390fd5b60008382815181106110205761101f612212565b5b602002602001015111611068576040517f08c379a000000000000000000000000000000000000000000000000000000000815260040161105f90612938565b60405180910390fd5b600082828151811061107d5761107c612212565b5b6020026020010151116110c5576040517f08c379a00000000000000000000000000000000000000000000000000000000081526004016110bc906129a4565b60405180910390fd5b6040518060a001604052808683815181106110e3576110e2612212565b5b6020026020010151815260200185838151811061110357611102612212565b5b6020026020010151815260200184838151811061112357611122612212565b5b602002602001015181526020016000815260200183838151811061114a57611149612212565b5b6020026020010151815250600b600088848151811061116c5761116b612212565b5b60200260200101518152602001908152602001600020600082015181600001556020820151816001015560408201518160020155606082015181600301556080820151816004015590505080806111c2906122dc565b915050610f20565b505050505050565b6111da611663565b73ffffffffffffffffffffffffffffffffffffffff166111f86113df565b73ffffffffffffffffffffffffffffffffffffffff161461124e576040517f08c379a0000000000000000000000000000000000000000000000000000000008152600401611245906120b9565b60405180910390fd5b6003548111801561125e57504281115b61129d576040517f08c379a000000000000000000000000000000000000000000000000000000000815260040161129490612a36565b60405180910390fd5b8060048190555050565b7f000000000000000000000000000000000000000000000000000000000000000081565b6112d3611663565b73ffffffffffffffffffffffffffffffffffffffff166112f16113df565b73ffffffffffffffffffffffffffffffffffffffff1614611347576040517f08c379a000000000000000000000000000000000000000000000000000000000815260040161133e906120b9565b60405180910390fd5b6113516000611808565b565b61135b611663565b73ffffffffffffffffffffffffffffffffffffffff166113796113df565b73ffffffffffffffffffffffffffffffffffffffff16146113cf576040517f08c379a00000000000000000000000000000000000000000000000000000000081526004016113c6906120b9565b60405180910390fd5b6113d76118cc565b565b60055481565b60008060009054906101000a900473ffffffffffffffffffffffffffffffffffffffff16905090565b600960009054906101000a900473ffffffffffffffffffffffffffffffffffffffff1681565b600860009054906101000a900473ffffffffffffffffffffffffffffffffffffffff1681565b60035481565b60075481565b60045481565b60065481565b611474611663565b73ffffffffffffffffffffffffffffffffffffffff166114926113df565b73ffffffffffffffffffffffffffffffffffffffff16146114e8576040517f08c379a00000000000000000000000000000000000000000000000000000000081526004016114df906120b9565b60405180910390fd5b6000811161152b576040517f08c379a000000000000000000000000000000000000000000000000000000000815260040161152290612aa2565b60405180910390fd5b8060028190555050565b61153d611663565b73ffffffffffffffffffffffffffffffffffffffff1661155b6113df565b73ffffffffffffffffffffffffffffffffffffffff16146115b1576040517f08c379a00000000000000000000000000000000000000000000000000000000081526004016115a8906120b9565b60405180910390fd5b600073ffffffffffffffffffffffffffffffffffffffff168173ffffffffffffffffffffffffffffffffffffffff161415611621576040517f08c379a000000000000000000000000000000000000000000000000000000000815260040161161890612b34565b60405180910390fd5b61162a81611808565b50565b600b6020528060005260406000206000915090508060000154908060010154908060020154908060030154908060040154905085565b600033905090565b600080828461167a9190612b54565b9050838110156116bf576040517f08c379a00000000000000000000000000000000000000000000000000000000081526004016116b690612bf6565b60405180910390fd5b8091505092915050565b8373ffffffffffffffffffffffffffffffffffffffff166323b872dd8484846040518463ffffffff1660e01b815260040161170693929190612c16565b602060405180830381600087803b15801561172057600080fd5b505af1158015611734573d6000803e3d6000fd5b505050506040513d601f19601f820116820180604052508101906117589190612c79565b61176157600080fd5b50505050565b61176f610e20565b6117ae576040517f08c379a00000000000000000000000000000000000000000000000000000000081526004016117a590612cf2565b60405180910390fd5b60008060146101000a81548160ff0219169083151502179055507f5db9ee0a495bf2e6ff9c91a7834c1ba4fdd244a5e8aa4e537bd38aeae4b073aa6117f1611663565b6040516117fe9190611fff565b60405180910390a1565b60008060009054906101000a900473ffffffffffffffffffffffffffffffffffffffff169050816000806101000a81548173ffffffffffffffffffffffffffffffffffffffff021916908373ffffffffffffffffffffffffffffffffffffffff1602179055508173ffffffffffffffffffffffffffffffffffffffff168173ffffffffffffffffffffffffffffffffffffffff167f8be0079c531659141344cd1fd0a4f28419497f9722a3daafe3b4186f6b6457e060405160405180910390a35050565b6118d4610e20565b15611914576040517f08c379a000000000000000000000000000000000000000000000000000000000815260040161190b90612371565b60405180910390fd5b6001600060146101000a81548160ff0219169083151502179055507f62e78cea01bee320cd4e420270b5ea74000d11b0c9f74754ebdbfc544b05a258611958611663565b6040516119659190611fff565b60405180910390a1565b6000604051905090565b600080fd5b600080fd5b6000819050919050565b61199681611983565b81146119a157600080fd5b50565b6000813590506119b38161198d565b92915050565b6000602082840312156119cf576119ce611979565b5b60006119dd848285016119a4565b91505092915050565b600081519050919050565b600082825260208201905092915050565b60005b83811015611a20578082015181840152602081019050611a05565b83811115611a2f576000848401525b50505050565b6000601f19601f8301169050919050565b6000611a51826119e6565b611a5b81856119f1565b9350611a6b818560208601611a02565b611a7481611a35565b840191505092915050565b60006020820190508181036000830152611a998184611a46565b905092915050565b600073ffffffffffffffffffffffffffffffffffffffff82169050919050565b6000819050919050565b6000611ae6611ae1611adc84611aa1565b611ac1565b611aa1565b9050919050565b6000611af882611acb565b9050919050565b6000611b0a82611aed565b9050919050565b611b1a81611aff565b82525050565b6000602082019050611b356000830184611b11565b92915050565b600080fd5b7f4e487b7100000000000000000000000000000000000000000000000000000000600052604160045260246000fd5b611b7882611a35565b810181811067ffffffffffffffff82111715611b9757611b96611b40565b5b80604052505050565b6000611baa61196f565b9050611bb68282611b6f565b919050565b600067ffffffffffffffff821115611bd657611bd5611b40565b5b602082029050602081019050919050565b600080fd5b6000611bf782611aa1565b9050919050565b611c0781611bec565b8114611c1257600080fd5b50565b600081359050611c2481611bfe565b92915050565b6000611c3d611c3884611bbb565b611ba0565b90508083825260208201905060208402830185811115611c6057611c5f611be7565b5b835b81811015611c895780611c758882611c15565b845260208401935050602081019050611c62565b5050509392505050565b600082601f830112611ca857611ca7611b3b565b5b8135611cb8848260208601611c2a565b91505092915050565b600067ffffffffffffffff821115611cdc57611cdb611b40565b5b602082029050602081019050919050565b6000611d00611cfb84611cc1565b611ba0565b90508083825260208201905060208402830185811115611d2357611d22611be7565b5b835b81811015611d4c5780611d3888826119a4565b845260208401935050602081019050611d25565b5050509392505050565b600082601f830112611d6b57611d6a611b3b565b5b8135611d7b848260208601611ced565b91505092915050565b60008060408385031215611d9b57611d9a611979565b5b600083013567ffffffffffffffff811115611db957611db861197e565b5b611dc585828601611c93565b925050602083013567ffffffffffffffff811115611de657611de561197e565b5b611df285828601611d56565b9150509250929050565b611e0581611983565b82525050565b6000602082019050611e206000830184611dfc565b92915050565b60008115159050919050565b611e3b81611e26565b82525050565b6000602082019050611e566000830184611e32565b92915050565b600060208284031215611e7257611e71611979565b5b6000611e8084828501611c15565b91505092915050565b6000604082019050611e9e6000830185611dfc565b611eab6020830184611dfc565b9392505050565b600080600080600060a08688031215611ece57611ecd611979565b5b600086013567ffffffffffffffff811115611eec57611eeb61197e565b5b611ef888828901611d56565b955050602086013567ffffffffffffffff811115611f1957611f1861197e565b5b611f2588828901611d56565b945050604086013567ffffffffffffffff811115611f4657611f4561197e565b5b611f5288828901611d56565b935050606086013567ffffffffffffffff811115611f7357611f7261197e565b5b611f7f88828901611d56565b925050608086013567ffffffffffffffff811115611fa057611f9f61197e565b5b611fac88828901611d56565b9150509295509295909350565b600060ff82169050919050565b611fcf81611fb9565b82525050565b6000602082019050611fea6000830184611fc6565b92915050565b611ff981611bec565b82525050565b60006020820190506120146000830184611ff0565b92915050565b600060a08201905061202f6000830188611dfc565b61203c6020830187611dfc565b6120496040830186611dfc565b6120566060830185611dfc565b6120636080830184611dfc565b9695505050505050565b7f4f776e61626c653a2063616c6c6572206973206e6f7420746865206f776e6572600082015250565b60006120a36020836119f1565b91506120ae8261206d565b602082019050919050565b600060208201905081810360008301526120d281612096565b9050919050565b7f53616c6520616c72656164792073746172746564000000000000000000000000600082015250565b600061210f6014836119f1565b915061211a826120d9565b602082019050919050565b6000602082019050818103600083015261213e81612102565b9050919050565b7f4e487b7100000000000000000000000000000000000000000000000000000000600052602260045260246000fd5b6000600282049050600182168061218c57607f821691505b602082108114156121a05761219f612145565b5b50919050565b7f4172726179206c656e677468206d69736d617463680000000000000000000000600082015250565b60006121dc6015836119f1565b91506121e7826121a6565b602082019050919050565b6000602082019050818103600083015261220b816121cf565b9050919050565b7f4e487b7100000000000000000000000000000000000000000000000000000000600052603260045260246000fd5b7f496e76616c696420746965720000000000000000000000000000000000000000600082015250565b6000612277600c836119f1565b915061228282612241565b602082019050919050565b600060208201905081810360008301526122a68161226a565b9050919050565b7f4e487b7100000000000000000000000000000000000000000000000000000000600052601160045260246000fd5b60006122e782611983565b91507fffffffffffffffffffffffffffffffffffffffffffffffffffffffffffffffff82141561231a576123196122ad565b5b600182019050919050565b7f5061757361626c653a2070617573656400000000000000000000000000000000600082015250565b600061235b6010836119f1565b915061236682612325565b602082019050919050565b6000602082019050818103600083015261238a8161234e565b9050919050565b60006040820190506123a66000830185611ff0565b6123b36020830184611ff0565b9392505050565b6000815190506123c98161198d565b92915050565b6000602082840312156123e5576123e4611979565b5b60006123f3848285016123ba565b91505092915050565b7f4d616b65207375726520746f2061646420656e6f75676820616c6c6f77616e6360008201527f6500000000000000000000000000000000000000000000000000000000000000602082015250565b60006124586021836119f1565b9150612463826123fc565b604082019050919050565b600060208201905081810360008301526124878161244b565b9050919050565b7f53616c65206e6f74207374617274656420796574000000000000000000000000600082015250565b60006124c46014836119f1565b91506124cf8261248e565b602082019050919050565b600060208201905081810360008301526124f3816124b7565b9050919050565b7f53616c6520456e64656400000000000000000000000000000000000000000000600082015250565b6000612530600a836119f1565b915061253b826124fa565b602082019050919050565b6000602082019050818103600083015261255f81612523565b9050919050565b7f4578636565647320706f6f6c206d617820636170000000000000000000000000600082015250565b600061259c6014836119f1565b91506125a782612566565b602082019050919050565b600060208201905081810360008301526125cb8161258f565b9050919050565b7f55736572206e6f742077686974656c6973746564000000000000000000000000600082015250565b60006126086014836119f1565b9150612613826125d2565b602082019050919050565b60006020820190508181036000830152612637816125fb565b9050919050565b7f416d6f756e74206c657373207468616e2075736572206d696e20636170000000600082015250565b6000612674601d836119f1565b915061267f8261263e565b602082019050919050565b600060208201905081810360008301526126a381612667565b9050919050565b7f416d6f756e742067726561746572207468616e2075736572206d617820636170600082015250565b60006126e06020836119f1565b91506126eb826126aa565b602082019050919050565b6000602082019050818103600083015261270f816126d3565b9050919050565b7f416d6f756e742067726561746572207468616e207468652074696572206d617860008201527f2063617000000000000000000000000000000000000000000000000000000000602082015250565b60006127726024836119f1565b915061277d82612716565b604082019050919050565b600060208201905081810360008301526127a181612765565b9050919050565b7f4c656e67746873206d69736d6174636800000000000000000000000000000000600082015250565b60006127de6010836119f1565b91506127e9826127a8565b602082019050919050565b6000602082019050818103600083015261280d816127d1565b9050919050565b7f496e76616c69642074696572206e756d62657200000000000000000000000000600082015250565b600061284a6013836119f1565b915061285582612814565b602082019050919050565b600060208201905081810360008301526128798161283d565b9050919050565b7f496e76616c6964206d617820746965722063617020616d6f756e740000000000600082015250565b60006128b6601b836119f1565b91506128c182612880565b602082019050919050565b600060208201905081810360008301526128e5816128a9565b9050919050565b7f496e76616c6964206d617820757365722063617020616d6f756e740000000000600082015250565b6000612922601b836119f1565b915061292d826128ec565b602082019050919050565b6000602082019050818103600083015261295181612915565b9050919050565b7f5a65726f20757365727320696e20746965720000000000000000000000000000600082015250565b600061298e6012836119f1565b915061299982612958565b602082019050919050565b600060208201905081810360008301526129bd81612981565b9050919050565b7f53616c6520656e642063616e2774206265206c657373207468616e2073616c6560008201527f2073746172740000000000000000000000000000000000000000000000000000602082015250565b6000612a206026836119f1565b9150612a2b826129c4565b604082019050919050565b60006020820190508181036000830152612a4f81612a13565b9050919050565b7f5a65726f206d6178206361700000000000000000000000000000000000000000600082015250565b6000612a8c600c836119f1565b9150612a9782612a56565b602082019050919050565b60006020820190508181036000830152612abb81612a7f565b9050919050565b7f4f776e61626c653a206e6577206f776e657220697320746865207a65726f206160008201527f6464726573730000000000000000000000000000000000000000000000000000602082015250565b6000612b1e6026836119f1565b9150612b2982612ac2565b604082019050919050565b60006020820190508181036000830152612b4d81612b11565b9050919050565b6000612b5f82611983565b9150612b6a83611983565b9250827fffffffffffffffffffffffffffffffffffffffffffffffffffffffffffffffff03821115612b9f57612b9e6122ad565b5b828201905092915050565b7f536166654d6174683a206164646974696f6e206f766572666c6f770000000000600082015250565b6000612be0601b836119f1565b9150612beb82612baa565b602082019050919050565b60006020820190508181036000830152612c0f81612bd3565b9050919050565b6000606082019050612c2b6000830186611ff0565b612c386020830185611ff0565b612c456040830184611dfc565b949350505050565b612c5681611e26565b8114612c6157600080fd5b50565b600081519050612c7381612c4d565b92915050565b600060208284031215612c8f57612c8e611979565b5b6000612c9d84828501612c64565b91505092915050565b7f5061757361626c653a206e6f7420706175736564000000000000000000000000600082015250565b6000612cdc6014836119f1565b9150612ce782612ca6565b602082019050919050565b60006020820190508181036000830152612d0b81612ccf565b905091905056fea2646970667358221220d39f80d41a5195fc05d8ce92fae24d2557c6b6298fab51f9b97ed1d984afc0ee64736f6c63430008090033",
  "linkReferences": {},
  "deployedLinkReferences": {}
}